:020000040801F1
:10000000681B0020D50101081D150108B10D01086C
:1000100019150108CF070108EF28010800000000AA
:10002000000000000000000000000000091C0108A2
:10003000D3070108000000007116010849210108DA
:10004000EF010108EF010108EF010108EF010108CC
:10005000EF010108EF010108D50701083D0801087B
:100060007D080108EF010108EF010108EF01010817
:10007000EF010108EF010108EF010108EF0101089C
:10008000EF010108EF010108EF010108EF0101088C
:10009000EF010108EF010108EF010108EF0101087C
:1000A000EF010108EF010108EF010108EF0101086C
:1000B000EF010108EF010108EF010108EF0101085C
:1000C000EF010108EF010108EF010108EF0101084C
:1000D000EF0101085523010895240108D5250108E1
:1000E000EF010108EF010108EF010108EF0101082C
:1000F000EF010108EF010108EF010108EF0101081C
:10010000EF010108EF010108EF010108EF0101080B
:10011000EF010108EF010108EF010108EF010108FB
:10012000EF010108EF010108EF010108EF010108EB
:1001300000F002F800F03FF80AA090E8000C8244BA
:100140008344AAF10107DA4501D100F034F8AFF297
:10015000090EBAE80F0013F0010F18BFFB1A43F0A5
:10016000010318470C5100002C510000103A24BF25
:1001700078C878C1FAD8520724BF30C830C144BF0C
:1001800004680C607047000000230024002500264E
:10019000103A28BF78C1FBD8520728BF30C148BFEA
:1001A0000B607047642900F07180002070471FB514
:1001B0001FBD10B510BD00F0D4FA1146FFF7F7FFD0
:1001C00003F0ECFB00F0F2FA03B4FFF7F2FF03BC1C
:1001D00000F0F6FA0948804709480047FEE7FEE7C5
:1001E000FEE7FEE7FEE7FEE7FEE7FEE7FEE7FEE7E7
:1001F00004480549054A064B704700004D21010897
:100200003101010868150020681B002068170020D4
:10021000681700200FB41CB5074B06AA7B4469463B
:100220000090059800F085FA0020694600F094FAE5
:100230001CBC5DF814FB00003905000070B50446D5
:1002400085690068C10601D5302600E02026C00778
:1002500007D070BDD4E9012130469047206A401C88
:1002600020626D1EF6D570BD70B5044685690078B4
:10027000C00707D170BDD4E9012120209047206A32
:10028000401C20626D1EF6D570BD00002DE9F041C6
:100290000646002410687529314616A510D0AFF324
:1002A0000080002802DA404213A507E031688A077F
:1002B00001D512A502E0490704D511A5012401E0EA
:1002C000AFF3008000210A2206F1240709E0B0FB09
:1002D000F2FCB0FBF2F302FB1C00303078541846FD
:1002E000491C0028F3D123462A463046BDE8F04198
:1002F00000F0C0B9000000002D0000002B0000003D
:10030000200000002DE9F05F894604464FF0000A06
:10031000DFF874B1FB44C0F820A02046E1688847AC
:10032000002874D0252806D0D4E901219047206AFE
:10033000401C2062F1E700265F462046E1688847BE
:100340002028054607DB312D05D2781910F8200C3E
:1003500008B10643F1E7B00701D526F00406C4F85A
:100360001CA00027C4F818A02A2D09D0284602F0A6
:10037000F1FA38B304EB8708303DC8F8185019E09B
:1003800059F8041B204604EB87029161E168884715
:10039000012F054618D1E069002820DA26F0200652
:1003A0001DE0D8F8180000EB800005EB4000303865
:1003B000C8F818002046E1688847054602F0CAFAE6
:1003C0000028EED1012F0AD02E2D08D12046E16859
:1003D00088477F1C0546022F46F02006C4DBA06933
:1003E000002803DA404246F00106A061F00701D080
:1003F00026F010066C2D0BD0682D09D04C2D39D06D
:100400006A2D35D0742D35D07A2D33D016E038E0F2
:10041000E1682F4620468847B842054609D16C2F2F
:1004200026D04FF48060E1680643204688470546A1
:1004300004E06C2F1AD04FF4807006430DB3A5F181
:100440004100192802D8203546F400664A4629465C
:10045000204626604E46FFF7A5FE80B101280BD04E
:10046000F61D26F0070000F1080956E74020E4E7F2
:100470008020D8E70020D6E706F104094DE728469A
:1004800052E7206ABDE8F09F444F000040EA0103B4
:1004900070B59B072ED14FF00136042A2AD308C825
:1004A00010C99D1B9D43121F15EAC61517D0D8B25F
:1004B000E1B2401A50EA056110D198B2A1B2401AD7
:1004C00050EA05410AD123F07F4024F07F41401AD1
:1004D00050EA052102D1180EA0EB146070BDA342B2
:1004E000DBD018BA21BA884201D9012070BD4FF083
:1004F000FF3070BD0AB9002070BD10F8013B11F843
:10050000014B63B1A3420AD1521E08D010F8013B3F
:1005100011F8014B1BB1A34201D1521EEDD1181BA2
:1005200070BD10B5203AC0F00B80B1E81850203AE9
:10053000A0E81850B1E81850A0E81850BFF4F5AF83
:100540005FEA027C24BFB1E81850A0E8185044BF0D
:1005500018C918C0BDE810405FEA827C24BF51F87A
:10056000043B40F8043B08BF7047D20728BF31F86E
:10057000023B48BF11F8012B28BF20F8023B48BFBF
:1005800000F8012B70474FF000020429C0F01280E0
:1005900010F0030C00F01B80CCF1040CBCF1020F36
:1005A00018BF00F8012BA8BF20F8022BA1EB0C010B
:1005B00000F00DB85FEAC17C24BF00F8012B00F801
:1005C000012B48BF00F8012B70474FF0000200B527
:1005D000134694469646203922BFA0E80C50A0E866
:1005E0000C50B1F12001BFF4F7AF090728BFA0E814
:1005F0000C5048BF0CC05DF804EB890028BF40F8E0
:10060000042B08BF704748BF20F8022B11F0804F21
:1006100018BF00F8012B704710B5044610F0030F07
:1006200008BF11F0030F40F015804FF0013E121F7C
:10063000C0F20E8051F8043BA3EB0E0C2CEA030C25
:100640001CEACE1C08BF40F8043BF0D0A1F1040125
:1006500002F10402521E08DB11F8013B002B00F8E6
:10066000013BF7D11146FFF78EFF204610BD7047C2
:10067000704770472DE9F0470D469946924604466B
:1006800000F124080168880604D5E06921F0100112
:10069000216000E00120A84201DD471B00E00027A7
:1006A000A1697A1902EB0900081AA0612078C00636
:1006B00002D42046FFF7C2FD002608E0D4E901215C
:1006C0001AF806009047206A401C761C20624E45AE
:1006D000F4DB2078C0060AD52046FFF7AFFD06E020
:1006E000D4E9012130209047206A401C2062381E46
:1006F000A7F10107F4DC07E0D4E9012118F80500AF
:100700009047206A401C2062281EA5F10105F3DCF9
:100710002046FFF7A9FD2078000602D50220BDE89B
:10072000F0870120FBE7000001694A1C026108789C
:10073000704700B58FB0CDE9013100210591054921
:100740007944CDE9031011466846FFF7DBFD0FB091
:1007500000BD0000E5FFFFFF0A6802F8010B0A6018
:100760007047754600F028F8AE46050069465346C6
:1007700020F00700854618B020B5FFF739FDBDE829
:1007800020404FF000064FF000074FF000084FF0F8
:10079000000B21F00701AC46ACE8C009ACE8C00989
:1007A000ACE8C009ACE8C0098D4670470446AFF319
:1007B00000802046FFF708FD00487047081500201C
:1007C00001491820ABBEFEE726000200704700BFBB
:1007D000FEE7704710B50A2002F00CFD01210E481B
:1007E00000F064FA98B90D48007830B901200B493F
:1007F00008700BA001F08AFE09E008480078012883
:1008000005D100200549087008A001F07FFE0120F5
:1008100000F0BEF810BD00000010014015000020DF
:1008200023574946492B47455449500023574946C9
:10083000492B4745545253534900000010B50A2034
:1008400002F0D8FC02210B4800F030FA68B90A48DF
:10085000007828B100F002FF00200749087004E08A
:1008600000F001FF012004490870022000F090F818
:1008700010BD0000001001401400002010B50A2037
:1008800002F0B8FC0421134800F010FA00281DD132
:100890001148007868B111A20621002000F0E4FDA3
:1008A00013A20621002000F0DFFD00200A49087095
:1008B0000CE00AA20621002000F0D6FD11A20621BC
:1008C000002000F0D1FD012003490870042000F051
:1008D0005FF810BD001001404A00002020202020B9
:1008E0002020202020202020202020200000000088
:1008F0002020204C6F772020506F776572202020B9
:10090000000000002020204869676820506F77654C
:1009100072202020000000001CB50121084600F0D4
:10092000C9FE0021022000F0CDF801200090002037
:100930008DF804000C208DF8050001208DF80600CC
:10094000684600F02BF80121022000F0BBF80220DD
:10095000009000208DF804000C208DF80500012087
:100960008DF80600684600F019F80221084600F0EC
:10097000A9F80420009000208DF804000C208DF8C8
:10098000050001208DF80600684600F007F81CBD40
:100990000149086070470000140401400021234908
:1009A0008279002A3AD00A46126803689A430B46B5
:1009B0001A600A1D126803689A430B1D1A600279B7
:1009C00011440A6803681A430A60184A0832126818
:1009D00003689A43154B08331A601A1D126803689E
:1009E0009A43124B0C331A604279102A0ED11A1F07
:1009F000126803681A430D4B08331A601A1D1268F7
:100A000003681A43094B0C331A600DE00749427919
:100A100011440A6803681A430A6005E00279114428
:100A20000A6803689A430A607047000000040140A6
:100A300010B54FF448710248FFF7C7FD10BD000024
:100A40004C00002010B54FF4C8710248FFF79BFD21
:100A500010BD00007503002008B50121182000F02A
:100A600029FE0121084600F025FE0121124800F070
:100A7000D5F81B20ADF8000010208DF803000320EE
:100A80008DF8020069460D4800F03CF84FF487608D
:100A9000ADF8000069460A4800F034F80720ADF8C8
:100AA000000048208DF8030003208DF802006946FD
:100AB000034800F027F808BD00023000000C014098
:100AC0000010014030B500228B071C0F0F2303FAE2
:100AD00004F20B4B8C1053F824309343084C8D10C8
:100AE00044F8253023468C1053F824308C07240F0B
:100AF00000FA04F42343024C8D1044F8253030BD35
:100B0000080001402DE9F0410246002500260020A2
:100B100000230024002791F803C00CF00F0591F882
:100B200003C00CF0100CBCF1000F03D091F802C010
:100B30004CEA050591F800C0BCF1000F31D01468F3
:100B400000202BE04FF0010C0CFA00F3B1F800C0CC
:100B50000CEA03069E4220D183004FF00F0C0CFAE2
:100B600003F7BC4305FA03FC4CEA040491F803C004
:100B7000BCF1280F06D14FF0010C0CFA00FCC2F8B2
:100B800014C00AE091F803C0BCF1480F05D14FF042
:100B9000010C0CFA00FCC2F810C0401C0828D1D38C
:100BA0001460B1F800C0BCF1FF0F34DD54680020C0
:100BB0002EE000F1080C4FF0010808FA0CF3B1F830
:100BC00000C00CEA03069E4221D183004FF00F0CB7
:100BD0000CFA03F7BC4305FA03FC4CEA040491F851
:100BE00003C0BCF1280F05D100F1080C08FA0CF87D
:100BF000C2F8148091F803C0BCF1480F07D100F18E
:100C0000080C4FF0010808FA0CF8C2F81080401CDC
:100C10000828CED35460BDE8F0810000F0B50A4644
:100C2000002300240021002500F00046B6F1004F0B
:100C300002D11D4EF16901E01B4E7168C0F30345FE
:100C400083B200F44016B6F5401F08D121F0706160
:100C5000154E766826F07066134F7E6012E000F441
:100C60008016B6F5801F06D1032606FA05F4A143C7
:100C700041F0706106E0460D360103FA06F6B14315
:100C800041F0706122B1460D360103FA06F6314398
:100C900000F00046B6F1004F02D1034EF16101E0D1
:100CA000014E7160F0BD00000000014002460020CE
:100CB00093680B400BB1012000E0002070474161B8
:100CC000704701617047000070B530488078303857
:100CD0002F4900FB01F42D48C078303840F63541EB
:100CE000484304EB401429480079303840F2712120
:100CF000484304EB001425484079303800EB4001AC
:100D0000C1EBC01004EBC00420488079303800EB00
:100D1000C00101EB001004EB80041C48C07930389E
:100D200000EB800004EB40041848007A303804449B
:100D3000224618A11948FFF76DFA1448407A303856
:100D40001749087008460178204602F0F3F9064674
:100D5000002517E013480078854207D1304602F09D
:100D6000FBF96900104A42F8210009E00F486900C8
:100D70000D4A42F82100012101EB450142F8210012
:100D8000681CC5B2082DE5DB70BD000075030020AE
:100D900040420F002530376C640000004000002006
:100DA0002D0000202C0000204C00002097C1897AE3
:100DB00000BFFEE708B50121082000F07BFC4FF4DE
:100DC0004050ADF8000010208DF8030003208DF88E
:100DD000020069460848FFF795FE69460648FFF796
:100DE00091FE4FF400510448FFF76BFF4FF4805120
:100DF0000148FFF766FF08BD000C014070B50446CE
:100E000000F0E2FC4FF400511648FFF758FF0025B0
:100E10001AE0E00928B14FF480511248FFF751FF62
:100E200004E04FF480510F48FFF749FF6006040EBD
:100E30004FF400510B48FFF744FF4FF400510948AD
:100E4000FFF73DFF681CC5B2082DE2DB4FF40051EF
:100E50000448FFF736FF4FF400510248FFF72FFF19
:100E600070BD0000000C014010B500F0ADFC4FF467
:100E700080510948FFF725FF4FF400510648FFF75E
:100E800020FF4FF480510448FFF719FF4FF4005141
:100E90000148FFF714FF10BD000C014010B500F031
:100EA00093FC4FF400510948FFF709FF4FF48051BC
:100EB0000648FFF704FF4FF400510448FFF701FF15
:100EC0004FF480510148FFF7FCFE10BD000C0140BB
:100ED00010B5FFF76FFFAE2001F01CFD202001F0E0
:100EE00019FD102001F016FDB02001F013FDC820FF
:100EF00001F010FD002001F00DFD102001F00AFDB1
:100F0000402001F007FD812001F004FD7F2001F069
:100F100001FDA12001F0FEFCA62001F0FBFCA820B1
:100F200001F0F8FC3F2001F0F5FCA42001F0F2FCF8
:100F3000D32001F0EFFC002001F0ECFCD52001F003
:100F4000E9FCF02001F0E6FCD92001F0E3FC2220CE
:100F500001F0E0FCDA2001F0DDFC122001F0DAFC07
:100F6000DB2001F0D7FC202001F0D4FC8D2001F023
:100F7000D1FC142001F0CEFCAF2001F0CBFC10BD61
:100F800010B5002240F22551BA4801F016FC0022AB
:100F900040F22441B74801F010FC002240F22551F4
:100FA000B54801F00AFC002240F22441B24801F0A9
:100FB00004FC002240F22551B04801F0FEFB002263
:100FC00040F22441AD4801F0F8FBAD4800782328F9
:100FD00013D1AB484078502803D0A94840784E2818
:100FE0000BD1A748C07A542803D0A548C07A4E2810
:100FF00003D10120A349087010E10A22A2A1A04850
:10100000FFF744FA18B902209E49087006E1092248
:10101000A0A19B48FFF73AFA18B903209949087034
:10102000FCE00B229EA19648FFF730FA18B90C207D
:1010300094490870F2E00B229CA19148FFF726FA30
:1010400018B904208F490870E8E00A229AA18C4858
:10105000FFF71CFA18B905208A490870DEE00C2257
:1010600098A18748FFF712FA18B906208549087039
:10107000D4E00C2297A18248FFF708FA18B907209C
:1010800080490870CAE00D2296A17D48FFF7FEF95D
:1010900018B915207B490870C0E00C2295A178484A
:1010A000FFF7F4F918B9182076490870B6E009225C
:1010B00094A17348FFF7EAF918B90820714908703C
:1010C000ACE00B2292A16E48FFF7E0F918B90920B5
:1010D0006C490870A2E0062290A16948FFF7D6F992
:1010E00018B90A206749087098E007228DA1644862
:1010F000FFF7CCF918B90B20624908708EE00D2279
:101100008AA15F48FFF7C2F918B919205D49087034
:1011100084E00F2289A15A48FFF7B8F918B90D20C9
:10112000584908707AE00E2288A15548FFF7AEF9B9
:1011300018B90E205349087070E00F2287A150485B
:10114000FFF7A4F918B91A204E49087066E00E227C
:1011500086A14B48FFF79AF918B91B204949087036
:101160005CE00C2285A14648FFF790F918B90F20E2
:101170004449087052E00C2284A14148FFF786F9E7
:1011800018B910203F49087048E00D2283A13C485F
:10119000FFF77CF918B911203A4908703EE00F2298
:1011A00082A13748FFF772F918B912203549087043
:1011B00034E00B2281A13248FFF768F918B91320F7
:1011C000304908702AE00D227FA12D48FFF75EF913
:1011D00018B914202B49087020E008227EA1284865
:1011E000FFF754F918B916202649087016E00A22AC
:1011F0007CA12348FFF74AF918B917202149087044
:101200000CE00D227AA11E48FFF740F918B9FD2025
:101210001C49087002E0FF201A49087000F0F6FC33
:10122000012240F22551134801F0C7FA012240F291
:101230002441104801F0C1FA012240F225510E4824
:1012400001F0BBFA012240F224410B4801F0B5FA4B
:10125000012240F22551094801F0AFFA012240F283
:101260002441064801F0A9FAFFF7ECFB002064498D
:10127000086010BD003801400044004000480040B4
:101280007503002032000020235345542B4652455D
:10129000513D0000235345542B4E554D3D00000059
:1012A000235345542B4E555F46523D00235345541E
:1012B0002B47524F55503D00235345542B4449531F
:1012C000503D0000235345542B44454C4159313D7A
:1012D00000000000235345542B44454C4159323DF6
:1012E00000000000235345542B4D455353414745BF
:1012F0003D000000235345542B4D4F44504F573D64
:1013000000000000234C4F41442B4E554D0000007F
:10131000234C4F41442B47524F55500023484552D0
:10132000443A00002347524F55503A00235749464C
:10133000492B5345542B4F4E3D000000235749463F
:10134000492B5345542B535349443D002357494699
:10135000492B5345542B50534B3D000023574946CE
:10136000492B53415645535349443D002357494661
:10137000492B5341564550534B3D00002357494696
:10138000492B5354413D4F4E00000000235749461E
:10139000492B5354413D4F464600000023574946D0
:1013A000492B53484F5749503D00000023574946A9
:1013B000492B53484F57525353493D0023574946F1
:1013C000492B47455449500023574946492B474527
:1013D000545253534900000023574946492B4F4B61
:1013E0000000000023574946492B4641494C000064
:1013F00023464143544F525952455345540000002F
:10140000380000202DE9F0470446884615464FF085
:1014100000090026002720E0E85D203800F0FF09E1
:101420007E2C04DD002408F1010000F0FF08414695
:10143000204600F05DF8002609E009EB4901094A61
:1014400002EB4101885D01F075FA701CC6B2062EF0
:10145000F3DBA01DC4B2781CC7B2E85D0028DBD165
:10146000BDE8F087E54901082DE9F04706460F463B
:10147000904600250024A14631E018F809002038E4
:10148000C5B2782E02DD0026781CC7B23946304638
:1014900000F02EF8002407E004EB0511134A505C1D
:1014A00001F048FA601CC4B2082CF5DB781CC1B20C
:1014B000304600F01DF8002408E004EB0511083167
:1014C0000A4A505C01F036FA601CC4B2082CF4DB06
:1014D00006F10800C6B209F1010000F0FF0918F892
:1014E00009000028C9D1BDE8F08700000D4C0108B3
:1014F00070B504460D4605F1B001C8B201F00AFA14
:10150000102141EA141001F005FA04F00F0141F036
:10151000010001F0FFF970BD00BFFEE7704708B59C
:101520004FF4A06000F090F825208DF80000032013
:101530008DF801008DF8020001208DF80300684647
:1015400000F04AF826208DF8000003208DF80100F5
:1015500002208DF8020001208DF80300684600F09B
:101560003BF827208DF8000003208DF801000120B2
:101570008DF802008DF80300684600F02DF8062073
:101580008DF8000002208DF801008DF80200012086
:101590008DF80300684600F01FF807208DF8000062
:1015A00002208DF8010001208DF802008DF8030063
:1015B000684600F011F808208DF8000002208DF830
:1015C000010000208DF8020001208DF8030068461C
:1015D00000F002F808BD000070B5002100230F22C2
:1015E000C47804B3154C246804F4E064C4F5E064E2
:1015F000210AC1F10403CA40447804FA03F1847853
:101600001440214309010E4C0678A155047804F0DA
:101610001F050124AC4005786D11AD0005F1E025F2
:10162000C5F8004109E0047804F01F050124AC402E
:10163000044D0678761145F8264070BD0CED00E0AB
:1016400000E400E080E100E002490143024A116049
:10165000704700000000FA050CED00E010B5AE2068
:1016600001F058F910BD10B5AF2001F053F910BDCD
:101670007047000029B1064AD2690243044BDA617F
:1016800004E0034AD2698243014BDA6170470000EB
:101690000010024029B1064A12690243044B1A6144
:1016A00004E0034A12698243014B1A61704700004B
:1016B0000010024029B1064A92690243044B9A6124
:1016C00004E0034A92698243014B9A61704700002B
:1016D0000010024029B1064AD2680243044BDA6086
:1016E00004E0034AD2688243014BDA60704700008D
:1016F0000010024030B500210022002400232D4DAF
:101700006D6805F00C0121B1042905D0082923D109
:1017100005E0294D056022E0274D05601FE0254DBD
:101720006D6805F47012234D6D6805F48034022550
:1017300005EB92421CB9214D554305600BE01D4D50
:101740006D6805F400351DB11C4D5543056002E080
:10175000194D5543056002E0174D056000BF00BFFD
:10176000144D6D6805F0F0010909154D6B5C0568B5
:10177000DD4045600F4D6D6805F4E061090A104DCC
:101780006B5C4568DD4085600A4D6D6805F460510D
:10179000C90A0B4D6B5C4568DD40C560054D6D6841
:1017A00005F44041890B074D6B5CC568B5FBF3F54B
:1017B000056130BD0010024000127A0000093D00B2
:1017C000000000201000002008B54FF48050ADF854
:1017D000000010208DF8030003208DF802006946F8
:1017E0000148FFF78FF908BD000C014021B10288C4
:1017F00042F04002028004E002884FF6BF731A40B4
:101800000280704710B502210548FFF758FA0620FC
:1018100000F0A2F902210248FFF753FA10BD0000C0
:101820000008014010B504462403FFF7EBFF00F069
:1018300063F802210B48FFF742FA202000F08CF9F0
:10184000C4F3074000F088F9C4F3072000F084F9DE
:10185000E0B200F081F902210248FFF732FA00F00D
:101860004BF810BD0008014010B500F025F900202C
:1018700000F09CF910BD00002DE9F04106460C4631
:10188000174602211048FFF71AFA032000F064F906
:10189000C4F3074000F060F9C4F3072000F05CF9DE
:1018A000E0B200F059F9002505E0FF2000F054F9FE
:1018B0007055681C85B2BD42F7DB02210248FFF774
:1018C00000FABDE8F08100000008014010B50024D6
:1018D00002210848FFF7F3F9052000F03DF9FF2049
:1018E00000F03AF9044602210248FFF7EAF92046DF
:1018F00010BD00000008014010B500BFFFF7E6FF73
:1019000000F001000028F9D110BD00002DE9F047DA
:1019100081460F4616464FEA1738C7F30B0ACAF539
:101920008054A64200DC344644E04FEA08314FF4CC
:1019300080522248FFF7A0FF002508E00AEB0500CF
:101940001E49085CFF2800D003E0681C85B2A54250
:10195000F4DB00BFA54216DA4046FFF763FF00251F
:1019600007E019F8050005EB0A01144A5054681CF9
:1019700085B2A542F5DB4FEA08314FF480520F489B
:1019800000F01EF804E022463946484600F018F8F8
:10199000A64200D10FE008F101084FF0000AA1446F
:1019A0002744301B86B2B6F5805F02DD4FF48054C9
:1019B00000E03446B9E700BFBDE8F0870505002028
:1019C0002DE9F04107460E461446F0B2C0F5807589
:1019D000AC4200DC254612E02A463146384600F08B
:1019E00013F8AC4200D10BE02F442E44601B84B2AC
:1019F000B4F5807F02DD4FF4807500E02546EBE70B
:101A000000BFBDE8F08100002DE9F04106460C461C
:101A10001746FFF7F7FE02211048FFF750F90220A2
:101A200000F09AF8C4F3074000F096F8C4F30720DA
:101A300000F092F8E0B200F08FF8002504E0705D4D
:101A400000F08AF8681C85B2BD42F8DB0221034829
:101A5000FFF737F9FFF750FFBDE8F08100080140BC
:101A60000246002013890B400BB1012000E000204A
:101A700070470146888970478181704710B5002200
:101A8000028802F441520B884C8823438C882343FC
:101A9000CC8823430C8923434C8923438C892343DB
:101AA000CC8923431A430280838B4FF2FF74234077
:101AB00083830B8A038210BD00B587B0012141F2F8
:101AC0000400FFF7F7FDE020ADF8040018208DF8C2
:101AD000070003208DF8060001A91D48FFF712F842
:101AE0000220ADF8040010208DF8070001A9184865
:101AF000FFF708F802211648FFF7E3F80020ADF8D9
:101B000008004FF48270ADF80A000020ADF80C0018
:101B10000220ADF80E000120ADF810004002ADF833
:101B200012003820ADF814000020ADF81600072090
:101B3000ADF8180002A90748FFF7A0FF01210548EA
:101B4000FFF754FEFF2000F007F807B000BD0000CB
:101B5000000801400030014070B50546002405E052
:101B6000601CC4B2C82C01DD002070BD02210E48EB
:101B7000FFF776FF0028F3D029460B48FFF77CFFDC
:101B8000002405E0601CC4B2C82C01DD0020ECE795
:101B900001210548FFF764FF0028F3D00248FFF752
:101BA00068FFC0B2E1E700000030014010B5044614
:101BB000144800884FF6C7710840124908801CB9C4
:101BC00008460088088017E0012C06D10D480088DF
:101BD00040F010000B4908800EE0022C06D10948A5
:101BE000008840F018000749088005E00548008893
:101BF00040F038000349088001210248FFF7F6FD54
:101C000010BD0000003001407047000010B546488C
:101C100000780F2857D00ADC70D2DFE800F02427C4
:101C20002A2D303336393C3F42454B4E5100172860
:101C300061D009DCA0F1100007286FD2DFE800F0C6
:101C400046494C4F525558001B2864D006DC1828D2
:101C500055D0192856D01A2860D159E0FD2854D003
:101C6000FF285BD123E001F073FD5AE002F028FA6F
:101C700057E002F097F854E002F042F951E002F028
:101C8000D1F84EE002F070F84BE001F0CBFF48E0F5
:101C900001F0C8FF45E001F07CFE42E001F074FE77
:101CA0003FE001F039FC3CE001F068FB39E001F075
:101CB0004FFD36E002F07EF933E002F05FFB30E0EA
:101CC00002F014FB2DE002F043FC2AE002F00EFCCF
:101CD00027E002F09BFB24E002F0DAFB21E002F0B7
:101CE00031FA1EE002F03AFA1BE002F0EDF818E0DB
:101CF00002F042FA15E002F0FBF912E00EE002F009
:101D00008FF90EE002F090FA0BE001F0E3FA08E040
:101D100002F070FA05E002F053FA02E001F018FD5B
:101D200000BF00BF10BD00003200002010B536A07B
:101D300000F04CFB3848007802F062F91021374877
:101D4000FEF7BDFF01213648FEF7B9FF3548008890
:101D500001F050FA3448807A4C2804D1482140F2EE
:101D6000867000F023FA3048807A482804D1482150
:101D700040F2353000F01AFA2B48807A532804D10B
:101D800048214FF4CD7000F011FA002404E04FF028
:101D9000AA3000F05FF8641C142CF8D3234800F03C
:101DA00059F800240FE0224850F8240020B12048C0
:101DB00050F82400401C00B907E01D4951F82400E8
:101DC00000F048F8641CC82CEDD300BF194800F09F
:101DD00041F80021184800F00AFA1848008801F07C
:101DE00009FA10210D48FEF76CFF002002F008F9F7
:101DF00001210B48FEF765FF20210848FEF761FF2F
:101E00000FA000F0E3FA10BD4F757470757474691B
:101E10006E672E2E2E0D0A004A0000200010014091
:101E2000000C01402E00002075030020D815D27C44
:101E30004C00002097C1897A000400403000002047
:101E40004F757470757420656E64696E672E0D0A27
:101E50000000000070B50446002532E004F00040A8
:101E6000A8B1194840784E2808D108211748FEF734
:101E700026FF20211648FEF722FF1DE00821134807
:101E8000FEF71FFF20211248FEF71BFF14E00E484B
:101E900040784E2808D108210C48FEF712FF202177
:101EA0000B48FEF70EFF07E008210848FEF707FF82
:101EB00020210748FEF703FF00F01CFD6400681CAA
:101EC000C5B2202DCADB70BD75030020000C014097
:101ED0000010014010B53B480078012871D13A4804
:101EE000C07A4E2803D03848C07A542869D10020DF
:101EF0003449087035A20621FFF7B6FA38A2062148
:101F00000020FFF7B1FAFEF7DFFE3A4A042137203E
:101F1000FFF7AAFA384A02213220FFF7A5FA2A4829
:101F2000807A3649087008460078532804D134A2D4
:101F300001211E20FFF766FA30480078482804D1B6
:101F400031A201211E20FFF75DFA2C4800784C28B1
:101F500004D12FA201211E20FFF754FA1A4840781D
:101F60002D49087008460078502804D12BA2012181
:101F70007820FFF747FA284800784E2804D128A295
:101F800001217820FFF73EFA0F48C07A4E2801D190
:101F900000F0E8FC0C48C07A542801D100F084FE1F
:101FA000FFF7C4FEFEF744FD08A206210020FFF75C
:101FB0005BFA1CA206210020FFF756FA642001F00C
:101FC00019F910BD330000207503002020202020C7
:101FD0002020202020202020202020200000000081
:101FE00020202053656E64696E672E2E2E202020DF
:101FF00000000000400000206C030020480000208A
:102000003234303000000000313230300000000047
:10201000353132200000000049000020500000004F
:102020004E0000002053656E642053756363657332
:10203000732120200000000010B500F001F810BD51
:102040000CB50020019000903348006840F48030C7
:102050003149086000BF3048006800F4003000904B
:102060000198401C0190009818B90198B0F5A06F34
:10207000F1D12948006800F4003010B1012000902F
:1020800001E0002000900098012843D12348006817
:1020900040F01000214908600846006820F0030065
:1020A00008600846006840F0020008601A4840686E
:1020B000194948600846406848600846406840F44E
:1020C000806048600846406820F47C1048600846FC
:1020D000406840F4E81048600846006840F08070AE
:1020E000086000BF0C48006800F000700028F9D0BC
:1020F0000948406820F003000749486008464068E6
:1021000040F00200486000BF0348406800F00C0047
:102110000828F9D10CBD0000001002400020024048
:10212000042808D14FF0E021096941F004014FF083
:10213000E022116107E04FF0E021096921F004017C
:102140004FF0E022116170477047000010B513484E
:10215000006840F0010011490860084640681049D5
:1021600008400E494860084600680E4908400B497F
:1021700008600846006820F480200860084640682F
:1021800020F4FE0048604FF41F008860FFF754FF02
:102190004FF000600449086010BD000000100240CC
:1021A0000000FFF8FFFFF6FE08ED00E03EB5054633
:1021B0000C4601210220FFF75DFAA8B2ADF8040039
:1021C000A0B2ADF800000020ADF80600ADF80200A6
:1021D0006946044800F020F80121024800F007F8A1
:1021E0003EBD000000040040CA430282704721B196
:1021F000028842F00102028004E002884FF6FE737A
:102200001A400280704702460020138A0B400BB12F
:10221000012000E000207047002202881D4B9842F8
:102220000ED01D4B98420BD0B0F1804F08D01B4B05
:10223000984205D01A4B984202D01A4B984204D1CA
:102240004FF68F731A404B881A43174B984207D0AA
:10225000164B984204D04FF6FF431A40CB881A43DE
:1022600002808B8883850B8803850A4B98420BD0AC
:10227000094B984208D00E4B984205D00D4B98421E
:1022800002D00D4B984201D10B7A03860123838241
:1022900070470000002C0140003401400004004061
:1022A00000080040000C00400010004000140040F6
:1022B00000400140004401400048014000B585B0A5
:1022C000012144F20400FFF7F5F918208DF81300FE
:1022D0004FF40070ADF8100003208DF8120004A92F
:1022E0001A48FEF70FFC04208DF813000002ADF829
:1022F000100004A91548FEF705FC154800F0D8F9B0
:102300004FF4E13000900020ADF80400ADF8060075
:10231000ADF80800ADF80C000C20ADF80A006946D5
:102320000B4800F06FFA0121094800F0B4F90122CE
:1023300040F22551064800F040FA012240F22441C3
:10234000034800F03AFA05B000BD00000008014063
:102350000038014010B540F22551174800F003FA4B
:10236000E0B140F22551144800F086F9124800F01F
:10237000B5FA1249087012480068B0F5C87F02D358
:1023800000200F4908600D4800780E490C4A126879
:1023900088540B480068401C0949086040F22441F9
:1023A000054800F0E0F930B10348001D00880649F7
:1023B0000870FEF7E5FD10BD003801403C0000202C
:1023C00038000020750300203D00002010B50446B1
:1023D0000BE014F8011B074800F085FA00BF40210C
:1023E000044800F0B3F90128F9D120780028F0D191
:1023F00010BD00000038014000B585B00121042067
:10240000FFF758F901214804FFF734F918208DF837
:1024100013000420ADF8100003208DF8120004A969
:102420001A48FEF76FFB04208DF813000820ADF862
:10243000100004A91548FEF765FB154800F038F9AF
:102440004FF4E13000900020ADF80400ADF8060034
:10245000ADF80800ADF80C000C20ADF80A00694694
:102460000B4800F0CFF90121094800F014F90122CE
:1024700040F22551064800F0A0F9012240F2244123
:10248000034800F09AF905B000BD000000080140C3
:102490000044004010B540F22551174800F063F9A0
:1024A000E0B140F22551144800F0E6F8124800F07F
:1024B00015FA1249087012480068B0F5C87F02D3B7
:1024C00000200F4908600D4800780E490C4A126838
:1024D00088540B480068401C0949086040F22441B8
:1024E000054800F040F930B10348001D0088064956
:1024F0000870FEF745FD10BD004400403C00002080
:1025000038000020750300203E00002010B504466E
:102510000BE014F8011B074800F0E5F900BF40216B
:10252000044800F013F90128F9D120780028F0D1EF
:1025300010BD00000044004000B585B00121082016
:10254000FFF7B8F801218804FFF794F818208DF8F8
:1025500013004FF48060ADF8100003208DF81200D6
:1025600004A91A48FEF7CEFA04208DF813004002A1
:10257000ADF8100004A91548FEF7C4FA144800F09D
:1025800097F84FF4165000900020ADF80400ADF815
:102590000600ADF80800ADF80C000C20ADF80A00FC
:1025A00069460B4800F02EF90121094800F073F844
:1025B000012240F22551064800F0FFF8012240F2C6
:1025C0002441034800F0F9F805B000BD000C0140BB
:1025D0000048004010B540F22551174800F0C3F8FC
:1025E000E0B140F22551144800F046F8124800F0DE
:1025F00075F91249087012480068B0F5C87F02D317
:1026000000200F4908600D4800780E490C4A1268F6
:1026100088540B480068401C0949086040F2244176
:10262000054800F0A0F830B10348001D00880649B5
:102630000870FEF7A5FC10BD004800403C000020DB
:1026400038000020750300203F00002010B504462C
:102650000BE014F8011B074800F045F900BF4021CA
:10266000044800F073F80128F9D120780028F0D14F
:1026700010BD00000048004010B50022002340F6C5
:102680006A14A14200D100BF0A1201249440A3B2EF
:10269000DC43048010BD21B1828942F40052828162
:1026A00004E082894DF6FF731A4082817047000072
:1026B00010B504462048844209D101218803FFF760
:1026C00009F800214FF48040FFF704F832E01B487E
:1026D000844209D101214804FEF7DCFF00214FF4B8
:1026E0000030FEF7D7FF25E01548844209D10121CB
:1026F0008804FEF7CFFF00214FF48020FEF7CAFFC9
:1027000018E01048844209D10121C804FEF7C2FF35
:1027100000214FF40020FEF7BDFF0BE00A48844281
:1027200008D101210805FEF7B5FF00214FF4801004
:10273000FEF7B0FF10BD000000380140004400402B
:1027400000480040004C004000500040024600207D
:10275000B1F5007F00D100BF13880B400BB1012001
:1027600000E00020704770B50246002400230025D9
:10277000002040F66A16B14200D100BFC1F34215F5
:1027800001F01F03012606FA03F3012D02D19689F9
:10279000334006E0022D02D1168A334001E0968ACA
:1027A00033400C12012606FA04F41688344013B1A3
:1027B0000CB1012000E0002070BDF0B503460024FC
:1027C00000260025002040F66A17B94200D100BF5C
:1027D0001846C1F3421401F01F06012707FA06F557
:1027E000012C01D10C3004E0022C01D1103000E0AA
:1027F00014301AB107682F43076002E00768AF433F
:102800000760F0BD2DE9F04786B005460E4600246E
:10281000A24600BFA1460027B08900B100BF2F46E5
:102820002C8A4CF6FF700440F08804432C82AC895B
:102830004EF6F3100440B08831890843718908438B
:102840000443AC81AC8A4FF6FF400440B089044396
:10285000AC8201A8FEF74EFF1F48874202D1DDF887
:1028600010A001E0DDF80CA0A88900F4004040B100
:102870000AEBCA0000EB0A1031684900B0FBF1F81E
:1028800007E00AEBCA0000EB0A1031688900B0FBD0
:10289000F1F86420B8FBF0F004012009642101FB89
:1028A0001089A88900F4004040B1322000EBC90033
:1028B000B0FBF1F000F00700044308E0322000EB29
:1028C00009106421B0FBF1F000F00F0004432C81EB
:1028D00006B0BDE8F0870000003801400146888856
:1028E000C0F308007047C1F308028280704700BF40
:1028F000FEE7000010B500BF01210548FFF783FC8B
:102900000028F9D001210248FFF76EFC10BD00003D
:102910000004004010B50446FEF7A6FA7820FEF742
:102920006DFA0020FEF76AFA2046FEF767FAFEF716
:10293000B5FA10BD10B50446FEF796FA7820FEF7FA
:102940005DFA4020FEF75AFA2046FEF757FAFEF7E6
:10295000A5FA10BD30380A2801D2012070470020A6
:10296000704700002DE9F043ADF25C6D4FF4C86193
:1029700007A8FDF72AFE4FF000080024C4480068AD
:102980000D380521B0FBF1F201FB120608E0641CD2
:102990002021BF480068401E2044BE4A1154761CC6
:1029A000052EF4D30C2442E0BA48005D412803D040
:1029B000B848005D0A2802D10A20B6490855B54832
:1029C000005D422803D0B348005D552802D10B209A
:1029D000B0490855AF48005D432803D0AD48005DBD
:1029E000202802D10C20AB490855AA48005D442894
:1029F00003D0A848005D2D2802D10D20A549085517
:102A0000A448005D452803D0A248005D5B2802D1A0
:102A10000F20A04908559F48005D462803D09D48D7
:102A2000005D5D2802D10E209A490855641CB4F55A
:102A3000C87FB9D30C260C2414E004F0010030B98F
:102A40009448005D0007000E9249885509E09148BE
:102A5000805D9049095D01F00F0108438D4988555B
:102A6000761C641CB4F5C87FE7D38B48007801213D
:102A700001EB40050C24C7E08648005D00F0F00043
:102A80008DF810008348005D0007000E8DF81100DE
:102A90008049601C085C00F0F0008DF81200601C9A
:102AA000085C0007000E8DF81300A01C085C00F005
:102AB000F0008DF81400A01C085C0007000E8DF8D3
:102AC0001500E01C085C00F0F0008DF81600E01C1A
:102AD000085C0007000E8DF81700201D085C00F050
:102AE000F0008DF81800201D085C0007000E8DF81E
:102AF0001900002715E0002610E001A8C05D40067F
:102B0000000E01A9C85501A8C05D04A9C95D3141E5
:102B100001F00101084301A9C855761C082EECD329
:102B20007F1C0A2FE7D34FF0004007A941F825008A
:102B300007A850F825009DF8041040EAC16007A9D5
:102B400041F8250007A850F825009DF8051040EA37
:102B5000C15007A941F8250007A850F825009DF8A5
:102B6000061040EAC14007A941F8250007A850F81F
:102B700025009DF8071040EAC13007A941F825005B
:102B800007A850F825009DF8081040EAC12007A9C1
:102B900041F825004FF0004107AA681C42F82010B8
:102BA00007A951F820009DF8091040EAC161681C8E
:102BB00042F8201007A951F820009DF80A1040EAB9
:102BC000C151681C42F8201007A951F820009DF857
:102BD0000B1040EAC141681C42F8201007A951F8C7
:102BE00020009DF80C1040EAC131681C42F820100A
:102BF00007A951F820009DF80D1040EAC121681C7A
:102C000042F82010AD1C641DB4F5C87FFFF434AF4A
:102C100021480078012101EB40064FF000081E48D2
:102C2000007801EB40042AE019490968A1F10D0080
:102C300001F098FD8146414601F0A8FD00D821E051
:102C400004F00F0028B9154A3046761C144941F8A3
:102C5000202007A951F8240000F07EFA3146761CA6
:102C60000F4A42F821000F49404601F00DFD804611
:102C7000C82E02D2B4F5C87F00D303E0641CB4F5BB
:102C8000C87FD1D300BF0DF25C6DBDE8F0830000BA
:102C900038000020750300202C000020D815D27CBD
:102CA0004C0000200000A0402DE9F041ADF5C86DBA
:102CB0004FF4C8616846FDF788FC0C25FE48007B90
:102CC000002805DDFC48007B7F2801DA012000E0B8
:102CD0000020C04308B101276D1CF748007B002885
:102CE00012DDF548007B7F280EDA4FF4C87404E04B
:102CF000601EF149085C0855641E0C2CF8D80F20A2
:102D0000ED4908730027AD1C33E0EB48405D002817
:102D100003DDE948405D7F2810DD7FB94FF4C874BA
:102D200004E0601EE449085C0855641EAC42F8D813
:102D30000E20E14948550127AD1C1AE0DE48405DF0
:102D4000002815DDDC48405D7F2811DC012F0FD104
:102D50004FF4C87404E0601ED749085C0855641E2F
:102D6000AC42F8D80F20D44948550027AD1C00E0EC
:102D70006D1CB5F5C87FC8D30C2420E0CE4810F8F0
:102D800004800020CC49085500250FE0CA48005DAA
:102D90004006000EC84908550846005D28FA05F1AE
:102DA00001F001010843C44908556D1C082DEDD3FD
:102DB000C148005D00F0FE00BF490855641CB4F531
:102DC000C87FDBD3BD480078012101EB40040C250E
:102DD0007AE14FF000404DF824005DF82400B64938
:102DE000495D40EAC1504DF824005DF82410B24A14
:102DF000681C105C41EA00404DF824005DF8241086
:102E0000A81C105C41EA40204DF824005DF8240025
:102E10006FF30A004DF824004FF00041601C4DF89C
:102E200020105DF82010A81C105C41EA4071601C65
:102E30004DF820105DF8200000F04041601C4DF876
:102E400020105DF82010E81C105C41EA8051601CE5
:102E50004DF820105DF82010281D105C41EAC031AB
:102E6000601C4DF820105DF82010681D105C41EAD0
:102E70000021601C4DF820105DF82000C10AC90235
:102E8000601C4DF820104FF00041A01C4DF82010A0
:102E90005DF82010681D105C41EA0071A01C4DF81F
:102EA00020105DF8200000F06041A01C4DF82010BB
:102EB0005DF82010A81D105C41EA4051A01C4DF89F
:102EC00020105DF82010E81D105C41EA8031A01C44
:102ED0004DF820105DF8201005F10800105C41EA63
:102EE000C011A01C4DF820105DF82000C10AC902D5
:102EF000A01C4DF820104FF00041E01C4DF82010B0
:102F00005DF8201005F10800105C41EAC061E01C8A
:102F10004DF820105DF8200000F07041E01C4DF8E5
:102F200020105DF8201005F10900105C41EA005105
:102F3000E01C4DF820105DF8201005F10A00105C2F
:102F400041EA4031E01C4DF820105DF8201005F1F9
:102F50000B00105C41EA8011E01C4DF820105DF878
:102F60002000C10AC902E01C4DF820104FF00041BA
:102F7000201D4DF820105DF8201005F10B00105CAD
:102F800041EA8061201D4DF820105DF8200000F01E
:102F90007841201D4DF820105DF8201005F10C003F
:102FA000105C41EAC041201D4DF820105DF8201052
:102FB00005F10D00105C41EA0031201D4DF8201094
:102FC0005DF8201005F10E00105C41EA4011201D53
:102FD0004DF820105DF82000C10AC902201D4DF8EF
:102FE00020104FF00041601D4DF820105DF82010BA
:102FF00005F10E00105C41EA4061601D4DF82010A3
:103000005DF8200000F07C41601D4DF820105DF857
:10301000201005F10F00105C41EA8041601D4DF861
:1030200020105DF8201005F11000105C41EAC0216D
:10303000601D4DF820105DF8201005F11100105CA6
:1030400041EA0011601D4DF820105DF82000C10A12
:10305000C902601D4DF820104FF00041A01D4DF831
:1030600020105DF8201005F11100105C41EA0061AC
:10307000A01D4DF820105DF8200000F07E41A01D3D
:103080004DF820105DF8201005F11200105C41EAA7
:103090004041A01D4DF820105DF8201005F11300EF
:1030A000105C41EA8021A01D4DF820105DF8200041
:1030B000C10AC902A01D03E0750300202C000020F6
:1030C0004DF82010E41D1435B5F5C87FFFF481AE2E
:1030D00015480078012101EB40051348007801EB09
:1030E000400618E05DF82600B0F1004F00D115E071
:1030F00006F00F0028B90D4A28466D1C0C4941F80E
:1031000020205DF8260000F027F829466D1C084AAB
:1031100042F82100761CB6F5C87FE3D300BF0DF559
:10312000C86DBDE8F08100002C000020D815D27CCD
:103130004C00002030B5024602F00704054D2C700B
:10314000002022F00700800200230B46DB02184318
:1031500030BD00002C00002030B501460023084699
:10316000012207E001F000440CB1104C6140541CF6
:10317000E2B24900152AF5DD6FF3150140EA51501E
:103180000146002207E001F000440CB15C1CE3B2F0
:10319000541CE2B249001F2AF5DB1C4603EBD47530
:1031A0006D10A3EB450505B1401C30BD000020EDBE
:1031B00010B56FF00400FEF7B3FF0A4800680A4933
:1031C000B0FBF1F0094908700846007800EB4001B7
:1031D000C1EBC0104FF6FF7101EAC000044908803E
:1031E00010BD00001800002000127A0034000020FA
:1031F000360000200146114A12884A434FF0E0236E
:103200005A6100229A611A46126942F001021A615B
:1032100000BF4FF0E022106900F001021AB100F483
:103220008032002AF5D04FF0E022126922F001022C
:103230004FF0E0231A6100229A61704736000020A7
:1032400000B5A7B030221A491BA8FDF76AF92C2255
:103250001749303110A8FDF764F916A0FFF756F9A9
:103260004FF4FA70FFF7C6FF08A800F0D7FA1E2245
:1032700008A90DF17B00FDF7CFF91BA8FFF746F970
:103280006420FFF7B7FF684600F0BFFA1E226946C8
:103290000DF14E00FDF7C0F910A8FFF737F96420D3
:1032A000FFF7A8FF07A0FFF731F927B000BD000026
:1032B0000052010823574946492B5354413D4F467C
:1032C0004600000023574946492B5354413D4F4E79
:1032D0000000000010B5FDF7B5FB00200A490860AA
:1032E00000F02EF800F0DEF908A200210846FEF7F3
:1032F000BBF80AA202210020FEF7B6F80CA20421B6
:103300000020FEF7B1F810BD38000020466163745C
:103310006F7279207265736574000000506C65618E
:103320007365207072657373207468650000000017
:10333000726573657420627574746F6E210000008D
:1033400070B50646002415E004F1B001C8B2FFF7DD
:10335000E1FA0020FFF7DEFA1020FFF7DBFA002584
:1033600004E03046FFF7E6FA681CC5B2802DF8DBB2
:10337000601CC4B2082CE7DB70BD000070B5C8B09B
:103380002C224BA16846FDF7CCF85448407A3038DF
:103390005249097A303901EB810100EB4100C6B294
:1033A000314642A800F01AFA4C48C07A00286ED084
:1033B0004A48C079592801D1012500E00025C822DA
:1033C00046490B310BA8FDF727F900245DE042A820
:1033D000005D312857D1621C41A147A8FCF71AFFB4
:1033E00047AA00217320FEF70DF821463DA800F002
:1033F000E9F908223DA90DF11100FDF70DF9684624
:10340000FFF724F938480021016041600172082269
:103410003DA9FDF701F94FF4C870FFF7EBFE214617
:103420003FA800F0A3F92D4800782B2803D1FDF721
:1034300009FB48B070BDFDF705FB23202749087044
:103440000B223FA92548401CFDF7E6F8C8220BA92E
:1034500022480C30FDF7E0F89DB14FF4C2711F48CF
:103460000C30FDF790F8C8210BA8FDF7AEF8214607
:103470000BA800F088F9C8220BA918480C30FDF7FA
:10348000CBF800F01DFE601CC4B2142C9FDB17A209
:1034900006210020FDF7E8FF19A206210020FDF714
:1034A000E3FFFDF7CFFA00201A49086000BFC0E72C
:1034B00041542B444D4F53455447524F55503D3086
:1034C0002C3135302E303235302C3135302E3032F3
:1034D00035302C312C322C312C310D0A7503002063
:1034E00025303264000000006C03002020202020E2
:1034F000202020202020202020202020000000004C
:103500002047726F75702063616C6C204F4B2020D8
:10351000000000003800002030B5C9B02C2247A1BF
:1035200001A8FCF7FEFF5048007B002874D04E48ED
:103530008079592801D1012500E0002514224A494B
:10354000C91D43A8FDF768F8C82247491C310CA8DB
:10355000FDF762F800245DE043A8005D312857D1F3
:10356000621C42A148A8FCF755FE48AA002173201E
:10357000FDF748FF21463EA800F024F908223EA9A5
:103580000DF11500FDF748F801A8FFF75FF839487D
:10359000002101604160017208223EA9FDF73CF85C
:1035A0004FF4C870FFF726FE214640A800F0DEF871
:1035B0002D4800782B2803D1FDF744FA49B030BDDF
:1035C000FDF740FA2320284908700B2240A926481D
:1035D000401CFDF721F8C8220CA923480C30FDF748
:1035E0001BF89DB14FF4C2711F480C30FCF7CBFFA4
:1035F000C8210CA8FCF7E9FF21460CA800F0C3F88D
:10360000C8220CA918480C30FDF706F800F058FD48
:10361000601CC4B2142C9FDB17A206210020FDF70A
:1036200023FF1AA206210020FDF71EFFFDF70AFA6C
:1036300000201B49086000BFC0E7000041542B4434
:103640004D4F53455447524F55503D302C31353036
:103650002E303235302C3135302E303235302C3161
:103660002C322C312C310D0A7503002025303264A8
:10367000000000006C0300202020202020202020BB
:10368000202020202020202000000000202048654D
:1036900072642063616C6C204F4B2020000000009E
:1036A0003800002010B5002411E0214612A000F0DF
:1036B000ADFF214613A000F0B5FF214617A000F092
:1036C00079FF214618A000F082FF601CC4B2142CC0
:1036D000EBDB17A000F0B4FF16A000F085FF15A0EB
:1036E00000F08BFF14A000F0BDFF16A000F0B1FFAA
:1036F0000FA000F0C0FF10BD3135322E3032353012
:103700000000000030303030303030303030303079
:103710003030303030303030000000005031323343
:10372000343536373048540048656C6C6F210000E2
:103730003100000032303000434D43432D6469694D
:1037400034000000756A65716772666E00000000E3
:1037500010B50448FEF73AFEFDF774F9002002495F
:10376000086010BD750300203800002070B50546C4
:103770000C4604EB4400002202EB80010B22284699
:10378000FEF77AF870BD70B505460C46C92204FBF9
:1037900002F000F58271C8222846FEF76DF870BD70
:1037A00010B50446042241F246612046FEF764F853
:1037B00010BD10B50446042241F24A612046FEF7CE
:1037C0005BF810BD70B505460C4641F2A86000EBF1
:1037D000C40108222846FEF74FF870BD70B50546B3
:1037E0000C4604EB840041F2504202EB80011422AB
:1037F0002846FEF741F870BD10B50446012241F29B
:1038000044612046FEF738F810BD10B504461E226C
:1038100041F276612046FEF72FF810BD10B5044640
:103820001E2241F253612046FEF726F810BD10B566
:103830000446012241F2A6612046FEF71DF810BDA4
:1038400008B56846FFF7ACFF9DF8000030384FF42C
:103850007A7148439DF80110303901EBC10202EB47
:10386000011100EB81019DF80200303800EB80006F
:1038700001EB40019DF803003038084410490880EE
:103880006846FFF796FF9DF8000030384FF47A71D4
:1038900048439DF80110303901EBC10202EB0111E0
:1038A00000EB81019DF80200303800EB800001EB55
:1038B00040019DF80300303808440249088008BDE3
:1038C0002E0000203000002030B5C1B004464FF477
:1038D000807101A8FCF779FE00252AE0642C15D13F
:1038E000294601A8FFF76EFF01A8FEF76FFD2946E4
:1038F00001A8FFF73BFF01A8FEF768FD294601A8D4
:10390000FFF741FF01A8FEF761FD08E0652C06D135
:10391000294601A8FFF762FF01A8FEF757FD0EA098
:10392000FEF754FD4FF4807101A8FCF74EFE681CB1
:10393000C5B2142DD2DBFDF785F8002007490860D9
:1039400007A20621FDF790FD0AA206210020FDF73F
:103950008BFD41B030BD0000263D00003800002046
:103960002020202020202020202020202020202057
:1039700000000000202055706C6F646520446F6E5D
:10398000652020200000000010B56520FFF79CFF97
:1039900010BD10B56420FFF797FF10BD08B568484B
:1039A00068490860FDF7BBFDFFF702FCFDF754F81E
:1039B000FEF784FCFEF720FDFEF7BEFDFCF7ACFF32
:1039C00002216148FDF77BF910215F48FDF779F985
:1039D00001215D48FDF775F920215C48FDF771F97B
:1039E00010215A48FDF76DF9FDF73EFF4FF4806155
:1039F0005648FDF766F9002000F002FB54A0FEF7E0
:103A0000E5FC53A0FEF782FD51A0FEF71FFE54A077
:103A1000FEF71CFEFDF75CFA0020FFF791FC5CA2AC
:103A200000210846FDF720FD5BA202210020FDF7E2
:103A30001BFD5CA204210020FDF716FD4FF47A70F7
:103A4000FFF7D8FB0020FFF77BFC5AA200210846B5
:103A5000FDF7D8FC59A200211E20FDF7D3FC58A287
:103A600000215A20FDF7CEFC57A200217320FDF75C
:103A7000C9FC56A202210A20FDF7F6FC55A202213C
:103A80003220FDF7F1FC56A204210F20FDF7ECFCDB
:103A900055A204213720FDF7E7FC55A201210020A3
:103AA000FDF7B0FC54A201211E20FDF7ABFC54A28F
:103AB00001215320FDF7A6FC53A201217820FDF738
:103AC000A1FCFFF7BDFE6846FFF796FE9DF80000DB
:103AD000302802D1FDF7C2FD01E0FDF7C4FDFFF77C
:103AE000AFFB6846FFF7A3FE9DF8000030280AD11F
:103AF00046A200211E20FDF785FC4FF4806113488B
:103B0000FDF7DDF809E043A200211E20FDF77AFC55
:103B10004FF480610D48FDF7D4F810E03F4800787D
:103B20002B2807D03D480078232808D13B4840780F
:103B3000232804D1FCF786FF002039490860EDE70F
:103B40000000010808ED00E0000C014000100140F9
:103B50005553415254312054657374210D0A0000AD
:103B600041542B444D4F53455447524F55503D30CF
:103B70002C3135322E373030302C3135322E383230
:103B800035302C312C322C312C310D0A0000000044
:103B900056312E3200000000323032302D30372DB9
:103BA000323100004372656174653A486F6E676830
:103BB000616F0000576966693A00000041500000DB
:103BC0004E756D3A0000000030310000467265719C
:103BD0003A0000003135322E37303030000000001E
:103BE000416464723A0000003030303030303000D0
:103BF000526174653A00000031323030000000003C
:103C000050686173653A0000500000004F666620FE
:103C1000202020004150202020200000750300209B
:103C20003800002010B586B0002407E03B4904F1BD
:103C30000C00085C05A90855601CC4B2042CF5DB17
:103C40003648807A31282FD105A800F0CDFC9DF8A8
:103C5000140030384FF47A7148439DF8151030390C
:103C600001EBC10202EB011100EB81019DF816008E
:103C7000303800EB800001EB40019DF81700303830
:103C80000844274908800846028826A16846FCF7B0
:103C9000C1FA29A206210020FDF7E6FB6A460621AB
:103CA0000020FDF7E1FB32E01C48807A32282ED15B
:103CB00005A800F0A2FC9DF8140030384FF47A718A
:103CC00048439DF81510303901EBC10202EB011198
:103CD00000EB81019DF81600303800EB800001EB0D
:103CE00040019DF8170030380844184908800846FC
:103CF000028817A16846FCF78DFA0FA20621002062
:103D0000FDF7B2FB6A4606210020FDF7ADFBFCF78C
:103D100099FE00201349086006B010BD750300200D
:103D20002E0000205054542044656C6179313A20B3
:103D30002530346400000000202020202020202096
:103D40002020202020202020000000003000002023
:103D50005054542044656C6179323A2025303464E3
:103D6000000000003800002010B50A48807A302892
:103D700005D1FDF773FC08A000F062FC04E0FDF73C
:103D800072FC06A000F05CFCFCF75CFE002004491D
:103D9000086010BD750300203000000031000000F5
:103DA0003800002010B58CB02C2210A101A8FCF71F
:103DB000B8FB00240DE0184904F10A00095C01AACF
:103DC000C01D11541449C01F085C14490855601CDB
:103DD00084B2082CEFDB01A8FEF738FCFCF732FEBA
:103DE00000200F4908600CB010BD000041542B4466
:103DF0004D4F53455447524F55503D302C3135307F
:103E00002E303235302C3135302E303235302C31A9
:103E10002C322C312C310D0A750300206C0300204C
:103E20003800002030B58BB01948007B3038184975
:103E3000C97A303901EB810100EB4100C5B26A1C3F
:103E400014A101A8FCF7E6F917A206210020FDF74E
:103E50000BFB01AA06210020FDF706FB002407E06A
:103E60000B4904F10E00085C06A90855601C84B2D9
:103E7000142CF5DB294606A800F0D4FB0FA0FEF7B2
:103E8000A5FAFCF7DFFD00200E4908600BB030BD3D
:103E900075030020253032642047726F75702053FF
:103EA0006176656420200000202020202020202032
:103EB0002020202020202020000000000D0A4F4B51
:103EC0000D0A00003800002010B5B2B0C8220B491E
:103ED0006846FCF7A1FB09481038807B3038074959
:103EE0001039497B303901EB810100EB4100C4B24C
:103EF0002146684600F06BFB32B010BD8503002000
:103F000030B5BBB00020389039903A901D48807A87
:103F100030381C49497A303901EB810100EB41000E
:103F2000C5B26A1C18A101A8FCF774F91BA20621EE
:103F30000020FDF799FA01AA06210020FDF794FA66
:103F4000002407E00F4904F10C00085C38A908556B
:103F5000601C84B20B2CF5DB294638A800F02AFB44
:103F6000C82208490D3106A8FCF756FB294606A8C9
:103F700000F02DFBFCF766FD00200D4908603BB00A
:103F800030BD0000750300202530326420436F6E81
:103F90006669672053617665642000002020202038
:103FA0002020202020202020202020200000000091
:103FB000380000207CB51048007B30380E49C97AA3
:103FC000303901EB810100EB4100C5B2002407E06C
:103FD000094904F10E00085C0DF80400601C84B26D
:103FE000082CF5DB2946684600F010FBFCF72AFD9B
:103FF0000020024908607CBD7503002038000020C5
:1040000010B5044624B908210448FCF758FE03E023
:1040100008210248FCF755FE10BD000000100140C9
:1040200008B5012215496846FCF7F6FA9DF800002C
:1040300048280CD10120FFF7E3FF11A20621002040
:10404000FDF712FA13A206210020FDF70DFA9DF8E4
:1040500000004C280CD10020FFF7D2FF08A2062157
:104060000020FDF701FA10A206210020FDF7FCF95F
:10407000FCF7E8FC00201149086008BD810300201E
:104080002020202020202020202020202020202030
:10409000000000002020204869676820506F776585
:1040A00072202020000000002020204C6F7720206C
:1040B000506F77657220202000000000380000203B
:1040C00010B507A0FEF782F9012007490870FDF737
:1040D00001FFFCF7B7FC00200449086010BD000098
:1040E0000D0A4F4B0D0A000033000020380000205D
:1040F00010B508A206210020FDF7B6F90AA2062194
:104100000020FDF7B1F90DA200211E20FDF77AF97C
:1041100010BD000020202020202020202020202052
:104120002020202000000000202020574946492060
:104130004661696C212020200000000041502020B1
:104140002020000010B502A0FEF7E0F910BD00002D
:1041500023574946492B47455449500010B502A002
:10416000FEF7D4F910BD000023574946492B4745B7
:10417000545253534900000010B507A206210020F5
:10418000FDF772F909A200211E20FDF73BF909A0F5
:10419000FEF7BCF910BD00002020202020202020A8
:1041A00020202020202020200000000041502B5300
:1041B0005441000023574946492B47455449500074
:1041C00000B589B0202101A8FCF7FFF91E2207499C
:1041D00001A8FCF721FA01A800F03BFAFCF732FC39
:1041E00000200349086009B000BD000083030020DF
:1041F0003800002000B589B0202101A8FCF7E5F9BE
:104200001E22074901A8FCF707FA01A800F02AFAC4
:10421000FCF718FC00200349086009B000BD00004D
:10422000840300203800002008B501221A4968469E
:10423000FCF7F2F9684600F01EFA9DF800003028FD
:1042400014D14FF480611548FCF739FD14A2062102
:104250000020FDF709F917A206210020FDF704F957
:1042600019A200211E20FDF7CDF813E00CA20621B3
:104270000020FDF7F9F816A206210020FDF7F4F85A
:104280004FF480610548FCF71CFD16A200211E209A
:10429000FDF7B8F808BD00008203002000100140BF
:1042A000202020202020202020202020202020200E
:1042B000000000002020202057696669206F666694
:1042C00020202020000000004F66662020202000D3
:1042D0002020202057696669204F6E202020202052
:1042E00000000000415020202020000000B58BB0CD
:1042F0002C2215496846FCF714F91E2213490DF1CA
:104300000E00FCF789F96846FEF700F92C21684693
:10431000FCF75BF91E220D496846FCF77DF96846FB
:1043200000F097F90AA206210020FDF79DF80DA2E2
:1043300006210020FDF798F8FCF784FB00200E49C9
:1043400008600BB000BD0000A849010883030020ED
:10435000202020202020202020202020202020205D
:104360000000000020205345542050534B204F4B59
:1043700020202020000000003800002000B58DB073
:104380003022154901A8FCF7CCF81E2213490DF183
:104390001300FCF741F901A8FEF7B8F8302101A895
:1043A000FCF713F91E220D4901A8FCF735F901A805
:1043B00000F058F90AA206210020FDF755F80DA2D9
:1043C00006210020FDF750F8FCF73CFB00200E49C9
:1043D00008600DB000BD000078490108840300208A
:1043E00020202020202020202020202020202020CD
:1043F0000000000020205345542053534944204FCF
:104400004B202020000000003800002010B586B0AE
:10441000142218A101A8FCF784F800241AE01A4914
:1044200004F10D00085C302804DB04F10D00085C89
:10443000392805DD144904F10D00085C2E2806D149
:10444000114904F10D00085C01A9085500E003E0E2
:10445000601CC4B20F2CE2DB00BF01AA06210020C1
:10446000FDF702F8FCF7EEFA00200849086006B0F4
:1044700010BD0000202020202020202020202020EF
:1044800020202020000000007503002038000020BC
:1044900000B585B014220D496846FCF742F80122A8
:1044A0000B490DF10A00FCF7B7F80AA2062100201B
:1044B000FCF7DAFF6A4606210020FCF7D5FFFCF77F
:1044C000C1FA00200849086005B000BDD4490108C0
:1044D00084030020202020202020202020202020B5
:1044E00020202020000000003800002010B509A086
:1044F000FEF70CF80BA206210020FCF7B5FF0EA278
:1045000006210020FCF7B0FFFCF79CFA00200F49C1
:10451000086010BD23574946492B5354413D4F462F
:1045200046000000202020202020202020202020C5
:104530002020202000000000202057494649205319
:104540005441204F46462020000000003800002043
:1045500010B509A0FDF7DAFF0BA206210020FCF739
:1045600083FF0EA206210020FCF77EFFFCF76AFA0B
:1045700000200F49086010BD23574946492B53546A
:10458000413D4F4E00000000202020202020202010
:10459000202020202020202000000000202057493B
:1045A000464920535441204F4E2020200000000057
:1045B0003800002070B505460C4604EB440000228C
:1045C00002EB80010B222846FDF7A0F970BD70B503
:1045D00005460C46C92204FB02F000F58271C82290
:1045E0002846FDF793F970BD10B50446042241F248
:1045F00046612046FDF78AF910BD10B50446042235
:1046000041F24A612046FDF781F910BD70B50546BB
:104610000C4641F2A86000EBC40108222846FDF7D1
:1046200075F970BD70B505460C4604EB840041F287
:10463000504202EB800114222846FDF767F970BD55
:1046400010B50446012241F244612046FDF75EF9AF
:1046500010BD10B504461E2241F276612046FDF7DA
:1046600055F910BD10B504461E2241F25361204693
:10467000FDF74CF910BD10B50446012241F2A661C8
:104680002046FDF743F910BD90EA010F48BF81F0C5
:10469000004100F10281421A3CBF801A89184FEA9A
:1046A000D0524FF07F4C1CEA410FA2EBD15318BF00
:1046B0009CEA026F00F03B804FF0004C4CEA002077
:1046C0004CEA012121FA03FC10EB0C0C1ED202F182
:1046D000FF325FEA1C2040EBC25038BF70471CF02D
:1046E0007F0F4FEA400C18BFBCF17F4F38BF7047B7
:1046F000C3F12003994008BF20F00100BCF17F4FB7
:1047000038BF7047A0F1C04000F0BAB84FEA3C0093
:10471000000A40EBC25028BF1CF0FF0F4FEA400CCC
:10472000E6D018BFBCF17F4F38BF7047EAE79CEA7C
:10473000026F05D010EA5C0F08BF00F00040704720
:1047400010B500F057F800BF64FBBE3E401058BFE4
:10475000C0F14040491058BFC1F140418142EFF3E0
:1047600000807047B0FA80F310FA03F2C3F19D03A2
:104770000AD0D90501EB1220530638BF704700F16B
:10478000010008BF20F001007047000050EA010C52
:1047900000F113801CF5000F58BFBCF5000F01D4C9
:1047A0008842704707D710F5000F58BF11F5000F6A
:1047B00015D488427047894270471CF5000F04D514
:1047C000BCF5000FF7D5814270474FF0807C1CEBA1
:1047D000400F38BF1CEB410F01D28142704710B52A
:1047E00000F008F8922449004FF000504FF080513B
:1047F000FFF7ACBF0EF1020E2EF0030E5EF8044B75
:10480000244204D44FEA4102B2F17F4F11D84FEA5B
:104810004003B3F17F4F0CD80ED14FEAD07CB2F1F8
:104820007F4F0CEB4C0C0CF1020C08BF4CEBD17C15
:1048300004E04FF0080C01E04FEAD17C0CEB4C0394
:1048400024FA03F404F00704B4F1040C06D20EEBCE
:10485000840CBDE810404CF0010C6047DFE80CF020
:10486000070802024FF00040A0F5800010BD084686
:10487000420018BFD2F1807288BF00F0004010BD26
:10488000FF2141EAD050C0057047000090EA010FB7
:1048900048BF81F000413FF5FEAE421A04D882F0D5
:1048A0000042A0EB020011444FEAD0524FF07F4C7F
:1048B0001CEA410FA2EBD15318BF9CEA026F4AD009
:1048C0004FF0004C4CEA00204CEA012121FA03FC95
:1048D000B0EB0C0C0FD412F0FE0F36D05FEA4C0098
:1048E0001DD5001240EBC25038BF70471CF03F0F7F
:1048F00018BF70470BE0A2F101025FEA1C2040EBF9
:10490000C25038BF70471CF07F0F18BF7047C3F10B
:104910002003994014BF401E20F00100704780081A
:104920004FEA122308BF7047B0FA80FCA2EB0C02DA
:10493000CCF1280C60FA0CF093EA122F04BF00EBC4
:10494000C25070474FEAC3707047130A5FEADC1029
:1049500008BF7047F6E79CEA026F04D010EA5C0FCC
:1049600008BF0020704710B5FFF744FF40DFF63E58
:1049700081F000407047000023574946492B5345BA
:10498000542B535349443D00000000000000000038
:104990000000000000000000000000000000000017
:1049A000000000000000000023574946492B5345F2
:1049B000542B50534B3D000000000000000000004D
:1049C00000000000000000000000000000000000E7
:1049D000000000005769666920525353493A0000AD
:1049E00000000000000000000000000000002F0098
:1049F0000000000700070000147F147F1400242A21
:104A00007F2A1200626408132300364955225000A1
:104A1000000503000000001C224100000041221C90
:104A2000000014083E08140008083E0808000000B2
:104A3000A06000000808080808000060600000008E
:104A40002010080402003E5149453E0000427F40CC
:104A500000004261514946002141454B3100181484
:104A6000127F10002745454539003C4A494930002E
:104A700001710905030036494949360006494929AB
:104A80001E000036360000000056360000000814F4
:104A900022410000141414141400004122140800D0
:104AA000020151090600324959513E007C1211128F
:104AB0007C007F49494936003E41414122007F4107
:104AC00041221C007F49494941007F090909010031
:104AD0003E4149497A007F0808087F0000417F4134
:104AE00000002040413F01007F08142241007F4028
:104AF000404040007F020C027F007F0408107F00CE
:104B00003E4141413E007F09090906003E415121D5
:104B10005E007F09192946004649494931000101D3
:104B20007F0101003F4040403F001F2040201F0008
:104B30003F4038403F0063140814630007087008C2
:104B40000700615149454300007F41410000552A5B
:104B5000552A55000041417F000004020102040073
:104B600040404040400000010204000020545454E2
:104B700078007F4844443800384444442000384496
:104B800044487F00385454541800087E090102003C
:104B900018A4A4A47C007F080404780000447D408D
:104BA00000004080847D00007F1028440000004108
:104BB0007F4000007C04180478007C08040478001E
:104BC000384444443800FC242424180018242418B1
:104BD000FC007C0804040800485454542000043F9E
:104BE000444020003C4040207C001C2040201C0011
:104BF0003C4030403C004428102844001CA0A0A0A9
:104C00007C004464544C4414141414141400000024
:104C10000000000000000000000000000000000094
:104C2000F800000000000000333000000000100C0D
:104C300006100C0600000000000000000040C078D4
:104C400040C0784000043F04043F04040000708822
:104C5000FC08300000001820FF211E0000F008F0C2
:104C600000E018000000211C031E211E0000F008B7
:104C700088700000001E2123241927211010160E11
:104C80000000000000000000000000000000000024
:104C9000E018040200000000071820400000020491
:104CA00018E000000000402018070000004040808D
:104CB000F0804040000202010F01020200000000EB
:104CC000F0000000000101011F01010100000000CF
:104CD000000000000080B070000000000000000034
:104CE00000000000000001010101010101000000BD
:104CF0000000000000003030000000000000000054
:104D00000080601804006018060100000000E01038
:104D1000080810E000000F102020100F00001010F5
:104D2000F8000000000020203F2020000000700854
:104D30000808887000003028242221300000300844
:104D400088884830000018202020110E000000C084
:104D50002010F8000000070424243F240000F80875
:104D600088880808000019212020110E0000E0109A
:104D70008888180000000F112020110E000038084C
:104D800008C83808000000003F00000000007088DC
:104D90000808887000001C222121221C0000E0105D
:104DA000080810E0000000312222110F000000006E
:104DB000C0C0000000000000303000000000000013
:104DC0008000000000000080600000000000008003
:104DD000402010080000010204081020004040405C
:104DE000404040400004040404040404000008108F
:104DF00020408000000020100804020100007048DC
:104E0000080808F0000000003036010000C030C87B
:104E100028E810E0000718272423140B000000C026
:104E200038E0000000203C23020227382008F888E0
:104E30008888700000203F202020110E00C030081C
:104E40000808083800071820202010080008F80873
:104E5000080810E000203F202020100F0008F888EC
:104E600088E8081000203F20202320180008F88838
:104E700088E8081000203F200003000000C0300830
:104E8000080838000007182020221E020008F80831
:104E9000000008F808203F210101213F20000808F8
:104EA000F8080800000020203F2020000000000833
:104EB00008F8080800C08080807F00000008F8889B
:104EC000C028180800203F20012638200008F808D4
:104ED0000000000000203F20202020300008F8F8CB
:104EE00000F8F80800203F003F003F200008F8309D
:104EF000C00008F808203F200007183F00E0100815
:104F0000080810E0000F10202020100F0008F808FB
:104F1000080808F000203F210101010000E010080E
:104F2000080810E0000F18242438504F0008F888B3
:104F30008888887000203F2000030C302000708893
:104F400008080838000038202121221C0018080811
:104F5000F8080818000000203F2000000008F808AA
:104F6000000008F808001F202020201F0008788873
:104F70000000C83808000007380E010000F80800DB
:104F8000F80008F800033C0700073C030008186815
:104F9000808068180820302C03032C30200838C883
:104FA00000C83808000000203F200000001008085A
:104FB00008C83808002038262120201800000000EA
:104FC000FE020202000000007F40404000000C3062
:104FD000C000000000000000010638C0000002020E
:104FE00002FE000000004040407F0000000000047E
:104FF00002020204000000000000000000000000A7
:10500000000000000080808080808080800002029C
:10501000040000000000000000000000000000800C
:1050200080808000000019242222223F2008F800FE
:105030008080000000003F112020110E00000000C1
:105040008080800000000E11202020110000000050
:10505000808088F800000E112020103F2000008082
:105060008080800000001F22222222130000808006
:10507000F0888888180020203F2020000000008051
:105080008080808000006B94949493600008F80006
:105090008080800000203F210000203F2000809879
:1050A00098000000000020203F20200000000000A9
:1050B000809898000000C08080807F000008F80081
:1050C0000080808000203F24022D3020000008084E
:1050D000F8000000000020203F2020000080808099
:1050E0008080808000203F20003F20003F808000A3
:1050F0008080800000203F210000203F20000080B1
:105100008080800000001F202020201F0080800061
:10511000808000000080FFA12020110E0000000010
:105120008080808000000E112020A0FF8080808081
:10513000008080800020203F2120000100000080AE
:105140008080808000003324242424190000808083
:10515000E0808000000000001F2020000080800010
:105160000000808000001F202020103F20808080D1
:10517000000080808000010E300806010080800061
:1051800080008080800F300C030C300F0000808086
:1051900000808080000020312E0E31200080808031
:1051A000000080808080818E701806010000808061
:1051B00080808080000021302C22213000000000FF
:1051C00000807C020200000000003F404000000020
:1051D00000FF00000000000000FF000000000202CD
:1051E0007C800000000040403F00000000000601FD
:1051F00001020204040000000000000000000000A2
:1052000023574946492B5345542B535349443D009A
:10521000000000000000000000000000000000008E
:10522000000000000000000000000000000000007E
:1052300023574946492B5345542B50534B3D0000AF
:10524000000000000000000000000000000000005E
:105250000000000000000000000000000400000842
:10526000000000000000000200010000100000002B
:1052700090520108000000204C0000006C01010861
:10528000DC5201084C0000201C1B000088010108B2
:1052900000000000010203040102030406070809DC
:1052A000020406080101000000A24A0400000000F8
:1052B0000000000001020304060708090000C800FE
:1052C000C800000000000000000000000000000016
:0C52D000000000000000000000000000D2
:0400000508010131BC
:00000001FF
